:0400000003EF3FF0DB
:107DFC003F065B4F666D7D077F6FFC0EF66E7D0E4A
:107E0C00F76E000EF86E00EE01F010EE0AF00900AD
:107E1C00F5CFEEFFE550E150FAE10001ADEF3FF098
:107E2C000D500E10D8B418D0010E0F6E04D0D8908F
:107E3C000D360E360F2A0EAEFAD70D500B5C0E50C7
:107E4C000C58D8A004D00D500B5E0E500C5AD89084
:107E5C000E320D320F2EF1D70BC00BF00CC00CF004
:107E6C001200000E106E000E0F6E0D500E10D8B4D6
:107E7C001CD0010E116E04D0D8900D360E36112A7E
:107E8C000EAEFAD7D8900F3610360D500B5C0E5044
:107E9C000C58D8A005D00D500B5E0E500C5A0F800C
:107EAC00D8900E320D32112EEDD70FC00BF010C042
:107EBC000CF0120012C00BF013C00CF0030E0E6E7F
:107ECC00E80E0D6E37EC3FF00B50186E12C00BF035
:107EDC0013C00CF0030E0E6EE80E0D6E16EC3FF098
:107EEC000BC012F00CC013F012C00BF013C00CF04E
:107EFC00000E0E6E640E0D6E37EC3FF00B50176ECD
:107F0C0012C00BF013C00CF0000E0E6E640E0D6E52
:107F1C0016EC3FF00BC012F00CC013F012C00BF0BB
:107F2C0013C00CF0000E0E6E0A0E0D6E37EC3FF007
:107F3C000B50166E12C00BF013C00CF0000E0E6E30
:107F4C000A0E0D6E16EC3FF00B50156E1200000E63
:107F5C00956E000E8C6E000E936E000E816E1E0ED2
:107F6C00136ED70E126E60EC3FF0010E1824D96E12
:107F7C00DA6A000EDA22DF508C6E010E8A6E0D0E5C
:107F8C00146EFC0EE82EFED7142EFCD7010E17240F
:107F9C00D96EDA6A000EDA22DF508C6E020E8A6E0F
:107FAC000D0E146EFC0EE82EFED7142EFCD7010E0F
:107FBC001624D96EDA6A000EDA22DF508C6E040EAB
:107FCC008A6E0D0E146EFC0EE82EFED7142EFCD706
:107FDC00010E1524D96EDA6A000EDA22DF508C6E8F
:107FEC00080E8A6E0D0E146EFC0EE82EFED7142EA3
:047FFC00FCD7B5D722
:020000040020DA
:08000000FFFFFFFFFFFFFFFF00
:020000040030CA
:0E000000000C181EFF8381FF0FC00FE00F40A1
:00000001FF
